{
  "address": "0xEE285F0Ef0cb1d103A64A85E5A0EDFEdcB53900f",
  "abi": [
    {
      "inputs": [
        {
          "internalType": "address",
          "name": "depositToken_",
          "type": "address"
        },
        {
          "internalType": "address",
          "name": "dividendsToken_",
          "type": "address"
        },
        {
          "internalType": "uint32",
          "name": "minLockDuration_",
          "type": "uint32"
        },
        {
          "internalType": "uint32",
          "name": "maxLockDuration_",
          "type": "uint32"
        },
        {
          "internalType": "uint256",
          "name": "minEarlyWithdrawalFee_",
          "type": "uint256"
        },
        {
          "internalType": "uint256",
          "name": "baseEarlyWithdrawalFee_",
          "type": "uint256"
        },
        {
          "internalType": "uint256",
          "name": "maxDividendsBonusMultiplier_",
          "type": "uint256"
        }
      ],
      "stateMutability": "nonpayable",
      "type": "constructor"
    },
    {
      "anonymous": false,
      "inputs": [],
      "name": "EmergencyUnlockTriggered",
      "type": "event"
    },
    {
      "anonymous": false,
      "inputs": [
        {
          "indexed": false,
          "internalType": "address",
          "name": "feeRecipient",
          "type": "address"
        }
      ],
      "name": "FeeRecipientSet",
      "type": "event"
    },
    {
      "anonymous": false,
      "inputs": [
        {
          "indexed": false,
          "internalType": "uint256",
          "name": "amount",
          "type": "uint256"
        }
      ],
      "name": "FeesReceived",
      "type": "event"
    },
    {
      "anonymous": false,
      "inputs": [
        {
          "indexed": false,
          "internalType": "uint256",
          "name": "amount",
          "type": "uint256"
        }
      ],
      "name": "FeesTransferred",
      "type": "event"
    },
    {
      "anonymous": false,
      "inputs": [
        {
          "indexed": true,
          "internalType": "uint256",
          "name": "lockId",
          "type": "uint256"
        },
        {
          "indexed": true,
          "internalType": "address",
          "name": "account",
          "type": "address"
        },
        {
          "indexed": false,
          "internalType": "uint256",
          "name": "amountLocked",
          "type": "uint256"
        },
        {
          "indexed": false,
          "internalType": "uint256",
          "name": "dividendShares",
          "type": "uint256"
        },
        {
          "indexed": false,
          "internalType": "uint32",
          "name": "duration",
          "type": "uint32"
        }
      ],
      "name": "LockCreated",
      "type": "event"
    },
    {
      "anonymous": false,
      "inputs": [
        {
          "indexed": true,
          "internalType": "uint256",
          "name": "lockId",
          "type": "uint256"
        },
        {
          "indexed": true,
          "internalType": "address",
          "name": "account",
          "type": "address"
        },
        {
          "indexed": false,
          "internalType": "uint256",
          "name": "amount",
          "type": "uint256"
        },
        {
          "indexed": false,
          "internalType": "uint256",
          "name": "dividendShares",
          "type": "uint256"
        }
      ],
      "name": "LockDestroyed",
      "type": "event"
    },
    {
      "anonymous": false,
      "inputs": [
        {
          "indexed": false,
          "internalType": "uint256",
          "name": "minimumDeposit",
          "type": "uint256"
        }
      ],
      "name": "MinimumDepositSet",
      "type": "event"
    },
    {
      "anonymous": false,
      "inputs": [
        {
          "indexed": true,
          "internalType": "address",
          "name": "previousOwner",
          "type": "address"
        },
        {
          "indexed": true,
          "internalType": "address",
          "name": "newOwner",
          "type": "address"
        }
      ],
      "name": "OwnershipTransferred",
      "type": "event"
    },
    {
      "anonymous": false,
      "inputs": [
        {
          "indexed": true,
          "internalType": "uint256",
          "name": "lockId",
          "type": "uint256"
        },
        {
          "indexed": true,
          "internalType": "address",
          "name": "account",
          "type": "address"
        },
        {
          "indexed": false,
          "internalType": "uint256",
          "name": "amount",
          "type": "uint256"
        },
        {
          "indexed": false,
          "internalType": "uint256",
          "name": "dividendShares",
          "type": "uint256"
        }
      ],
      "name": "PartialWithdrawal",
      "type": "event"
    },
    {
      "anonymous": false,
      "inputs": [
        {
          "indexed": true,
          "internalType": "address",
          "name": "account",
          "type": "address"
        },
        {
          "indexed": false,
          "internalType": "address",
          "name": "module",
          "type": "address"
        }
      ],
      "name": "SubDelegationModuleCreated",
      "type": "event"
    },
    {
      "inputs": [],
      "name": "baseEarlyWithdrawalFee",
      "outputs": [
        {
          "internalType": "uint256",
          "name": "",
          "type": "uint256"
        }
      ],
      "stateMutability": "view",
      "type": "function"
    },
    {
      "inputs": [
        {
          "internalType": "address",
          "name": "delegatee",
          "type": "address"
        }
      ],
      "name": "delegate",
      "outputs": [],
      "stateMutability": "nonpayable",
      "type": "function"
    },
    {
      "inputs": [
        {
          "internalType": "uint256",
          "name": "amount",
          "type": "uint256"
        },
        {
          "internalType": "uint32",
          "name": "duration",
          "type": "uint32"
        }
      ],
      "name": "deposit",
      "outputs": [
        {
          "internalType": "uint256",
          "name": "lockId",
          "type": "uint256"
        }
      ],
      "stateMutability": "nonpayable",
      "type": "function"
    },
    {
      "inputs": [],
      "name": "depositToken",
      "outputs": [
        {
          "internalType": "address",
          "name": "",
          "type": "address"
        }
      ],
      "stateMutability": "view",
      "type": "function"
    },
    {
      "inputs": [
        {
          "internalType": "uint256",
          "name": "lockId",
          "type": "uint256"
        }
      ],
      "name": "destroyLock",
      "outputs": [],
      "stateMutability": "nonpayable",
      "type": "function"
    },
    {
      "inputs": [],
      "name": "distributeFees",
      "outputs": [],
      "stateMutability": "nonpayable",
      "type": "function"
    },
    {
      "inputs": [],
      "name": "dividendsToken",
      "outputs": [
        {
          "internalType": "address",
          "name": "",
          "type": "address"
        }
      ],
      "stateMutability": "view",
      "type": "function"
    },
    {
      "inputs": [],
      "name": "emergencyUnlockTriggered",
      "outputs": [
        {
          "internalType": "bool",
          "name": "",
          "type": "bool"
        }
      ],
      "stateMutability": "view",
      "type": "function"
    },
    {
      "inputs": [],
      "name": "feeRecipient",
      "outputs": [
        {
          "internalType": "address",
          "name": "",
          "type": "address"
        }
      ],
      "stateMutability": "view",
      "type": "function"
    },
    {
      "inputs": [
        {
          "internalType": "uint256",
          "name": "duration",
          "type": "uint256"
        }
      ],
      "name": "getDividendsMultiplier",
      "outputs": [
        {
          "internalType": "uint256",
          "name": "multiplier",
          "type": "uint256"
        }
      ],
      "stateMutability": "view",
      "type": "function"
    },
    {
      "inputs": [],
      "name": "getLocksLength",
      "outputs": [
        {
          "internalType": "uint256",
          "name": "",
          "type": "uint256"
        }
      ],
      "stateMutability": "view",
      "type": "function"
    },
    {
      "inputs": [
        {
          "internalType": "uint256",
          "name": "amount",
          "type": "uint256"
        },
        {
          "internalType": "uint256",
          "name": "lockedAt",
          "type": "uint256"
        },
        {
          "internalType": "uint256",
          "name": "lockDuration",
          "type": "uint256"
        }
      ],
      "name": "getWithdrawalParameters",
      "outputs": [
        {
          "internalType": "uint256",
          "name": "dividendShares",
          "type": "uint256"
        },
        {
          "internalType": "uint256",
          "name": "earlyWithdrawalFee",
          "type": "uint256"
        }
      ],
      "stateMutability": "view",
      "type": "function"
    },
    {
      "inputs": [
        {
          "internalType": "uint256",
          "name": "",
          "type": "uint256"
        }
      ],
      "name": "locks",
      "outputs": [
        {
          "internalType": "uint256",
          "name": "amount",
          "type": "uint256"
        },
        {
          "internalType": "uint32",
          "name": "lockedAt",
          "type": "uint32"
        },
        {
          "internalType": "uint32",
          "name": "lockDuration",
          "type": "uint32"
        },
        {
          "internalType": "address",
          "name": "owner",
          "type": "address"
        }
      ],
      "stateMutability": "view",
      "type": "function"
    },
    {
      "inputs": [],
      "name": "maxDividendsBonusMultiplier",
      "outputs": [
        {
          "internalType": "uint256",
          "name": "",
          "type": "uint256"
        }
      ],
      "stateMutability": "view",
      "type": "function"
    },
    {
      "inputs": [],
      "name": "maxLockDuration",
      "outputs": [
        {
          "internalType": "uint32",
          "name": "",
          "type": "uint32"
        }
      ],
      "stateMutability": "view",
      "type": "function"
    },
    {
      "inputs": [],
      "name": "minEarlyWithdrawalFee",
      "outputs": [
        {
          "internalType": "uint256",
          "name": "",
          "type": "uint256"
        }
      ],
      "stateMutability": "view",
      "type": "function"
    },
    {
      "inputs": [],
      "name": "minLockDuration",
      "outputs": [
        {
          "internalType": "uint32",
          "name": "",
          "type": "uint32"
        }
      ],
      "stateMutability": "view",
      "type": "function"
    },
    {
      "inputs": [],
      "name": "minimumDeposit",
      "outputs": [
        {
          "internalType": "uint96",
          "name": "",
          "type": "uint96"
        }
      ],
      "stateMutability": "view",
      "type": "function"
    },
    {
      "inputs": [],
      "name": "moduleImplementation",
      "outputs": [
        {
          "internalType": "address",
          "name": "",
          "type": "address"
        }
      ],
      "stateMutability": "view",
      "type": "function"
    },
    {
      "inputs": [],
      "name": "owner",
      "outputs": [
        {
          "internalType": "address",
          "name": "",
          "type": "address"
        }
      ],
      "stateMutability": "view",
      "type": "function"
    },
    {
      "inputs": [],
      "name": "pendingFees",
      "outputs": [
        {
          "internalType": "uint96",
          "name": "",
          "type": "uint96"
        }
      ],
      "stateMutability": "view",
      "type": "function"
    },
    {
      "inputs": [],
      "name": "renounceOwnership",
      "outputs": [],
      "stateMutability": "nonpayable",
      "type": "function"
    },
    {
      "inputs": [
        {
          "internalType": "address",
          "name": "feeRecipient_",
          "type": "address"
        }
      ],
      "name": "setFeeRecipient",
      "outputs": [],
      "stateMutability": "nonpayable",
      "type": "function"
    },
    {
      "inputs": [
        {
          "internalType": "uint96",
          "name": "minimumDeposit_",
          "type": "uint96"
        }
      ],
      "name": "setMinimumDeposit",
      "outputs": [],
      "stateMutability": "nonpayable",
      "type": "function"
    },
    {
      "inputs": [
        {
          "internalType": "address",
          "name": "",
          "type": "address"
        }
      ],
      "name": "subDelegationModuleForUser",
      "outputs": [
        {
          "internalType": "contract ISubDelegationModule",
          "name": "",
          "type": "address"
        }
      ],
      "stateMutability": "view",
      "type": "function"
    },
    {
      "inputs": [
        {
          "internalType": "address",
          "name": "newOwner",
          "type": "address"
        }
      ],
      "name": "transferOwnership",
      "outputs": [],
      "stateMutability": "nonpayable",
      "type": "function"
    },
    {
      "inputs": [],
      "name": "triggerEmergencyUnlock",
      "outputs": [],
      "stateMutability": "nonpayable",
      "type": "function"
    },
    {
      "inputs": [
        {
          "internalType": "uint256",
          "name": "lockId",
          "type": "uint256"
        },
        {
          "internalType": "uint256",
          "name": "amount",
          "type": "uint256"
        }
      ],
      "name": "withdraw",
      "outputs": [],
      "stateMutability": "nonpayable",
      "type": "function"
    }
  ],
  "transactionHash": "0xaffcd6c4d230e4a5f6cbb61f13e36f4bf3478f8c878ae12a35c587cdfd83bfbc",
  "args": [
    "0x86772b1409b61c639eaac9ba0acfbb6e238e5f83",
    "0x262cd9ADCE436B6827C01291B84f1871FB8b95A3",
    7776000,
    31104000,
    "100000000000000000",
    "200000000000000000",
    "3000000000000000000"
  ],
  "solcInputHash": "78e7048c1933232b0ca4e026d69de219",
  "bytecode": "0x6101806040523480156200001257600080fd5b50604051620024d1380380620024d1833981016040819052620000359162000257565b6001600160601b0319606088901b1660a05260405187908190620000599062000217565b6001600160a01b03909116815260405190819003602001906000f08015801562000087573d6000803e3d6000fd5b5060601b6001600160601b031916608052506000620000a5620001d5565b600180546001600160a01b0319166001600160a01b038316908117909155604051919250906000907f8be0079c531659141344cd1fd0a4f28419497f9722a3daafe3b4186f6b6457e0908290a3506001600160601b0319606087901b1660c05263ffffffff80851690861610620001395760405162461bcd60e51b81526004016200013090620002d0565b60405180910390fd5b6ec097ce7bc90715b34b9f10000000006200017c620001678385620001d960201b6200118d1790919060201c565b856200020660201b620011b71790919060201c565b11156200019d5760405162461bcd60e51b81526004016200013090620002f2565b6001600160e01b031960e095861b811686529390941b9092166101005261016092909252610120919091526101405250620003129050565b3390565b6000821580620001f657505081810281838281620001f357fe5b04145b6200020057600080fd5b92915050565b808201828110156200020057600080fd5b6103b0806200212183390190565b80516001600160a01b03811681146200023d57600080fd5b919050565b805163ffffffff811681146200023d57600080fd5b600080600080600080600060e0888a03121562000272578283fd5b6200027d8862000225565b96506200028d6020890162000225565b95506200029d6040890162000242565b9450620002ad6060890162000242565b93506080880151925060a0880151915060c0880151905092959891949750929550565b6020808252600890820152670dad2dc7c7adac2f60c31b604082015260600190565b6020808252600690820152656d617846656560d01b604082015260600190565b60805160601c60a05160601c60c05160601c60e05160e01c6101005160e01c610120516101405161016051611d5c620003c560003980610646528061076652508061039e5280610ee7525080610b0a5280610e9952508061069d52806107075280610cea52508061066c52806106e652806107335280610f3f52508061047f5280610d0e52806112f3525080610da95280610e0d52806111e1528061137d525080610a01528061163c5250611d5c6000f3fe608060405234801561001057600080fd5b50600436106101c45760003560e01c80636fcb2fac116100f9578063bb57ad2011610097578063d6a298e911610071578063d6a298e91461033b578063e74b981b14610343578063f2fde38b14610356578063f4dadc6114610369576101c4565b8063bb57ad201461030a578063c89039c514610312578063d592800a1461031a576101c4565b806385ec38a2116100d357806385ec38a2146102d25780638da5cb5b146102e5578063a16cdbb1146102ed578063b7b9054a14610302576101c4565b80636fcb2fac146102af578063715018a6146102b757806375e79dfd146102bf576101c4565b806346904840116101665780635c86eba2116101405780635c86eba214610284578063636bfbab1461029757806367ed89221461029f5780636b4553eb146102a7576101c4565b80634690484014610254578063489c18b0146102695780635c19a95c14610271576101c4565b80632b2dfd2c116101a25780632b2dfd2c146102115780632c1fea78146102245780633f74525c1461022c578063441a3e701461023f576101c4565b80630f705a10146101c95780631ef38425146101e7578063224438d1146101fc575b600080fd5b6101d161038c565b6040516101de9190611af8565b60405180910390f35b6101ef61039c565b6040516101de9190611ca1565b6102046103c0565b6040516101de9190611d10565b6101ef61021f366004611a68565b6103d4565b6101ef610644565b6101ef61023a366004611a04565b610668565b61025261024d366004611a1c565b6107b5565b005b61025c61099a565b6040516101de9190611acb565b6101ef6109a9565b61025261027f3660046119d6565b6109af565b610252610292366004611a04565b6109bc565b6102046109e4565b61025c6109ff565b610252610a23565b6101ef610b08565b610252610b2c565b61025c6102cd3660046119d6565b610bea565b6102526102e0366004611a9f565b610c05565b61025c610cd9565b6102f5610ce8565b6040516101de9190611cff565b61025c610d0c565b610252610d30565b61025c610e0b565b61032d610328366004611a3d565b610e2f565b6040516101de929190611caa565b6102f5610f3d565b6102526103513660046119d6565b610f61565b6102526103643660046119d6565b611020565b61037c610377366004611a04565b611135565b6040516101de9493929190611cd4565b600454600160601b900460ff1681565b7f000000000000000000000000000000000000000000000000000000000000000081565b6004546bffffffffffffffffffffffff1681565b600354600090600160a01b90046bffffffffffffffffffffffff168310156104175760405162461bcd60e51b815260040161040e90611ba8565b60405180910390fd5b600454600160601b900460ff16156104415760405162461bcd60e51b815260040161040e90611b71565b61044b33846111c7565b600061045c8363ffffffff16610668565b90506000670de0b6b3a7640000610473868461118d565b8161047a57fe5b0490507f00000000000000000000000000000000000000000000000000000000000000006001600160a01b03166340c10f1933836040518363ffffffff1660e01b81526004016104cb929190611adf565b600060405180830381600087803b1580156104e557600080fd5b505af11580156104f9573d6000803e3d6000fd5b505060028054604080516080810182528a815263ffffffff428116602083019081528b82168385019081523360608501818152600188018955600089905294519787027f405787fa12a823e0f2b7631cc41b3ba8828b3321ca811111fa75cd3aa3bb5ace81019890985591517f405787fa12a823e0f2b7631cc41b3ba8828b3321ca811111fa75cd3aa3bb5acf9097018054915194516001600160a01b031668010000000000000000027fffffffff0000000000000000000000000000000000000000ffffffffffffffff9585166401000000000267ffffffff00000000199990951663ffffffff199093169290921797909716929092179290921617909355519096509092508591507f64da4fca99b77cd3e9e793572df82cec7f25a4e384041f26ba2107c3504db92f9061063490899086908a90611cb8565b60405180910390a3505092915050565b7f000000000000000000000000000000000000000000000000000000000000000081565b60007f000000000000000000000000000000000000000000000000000000000000000063ffffffff1682101580156106c657507f000000000000000000000000000000000000000000000000000000000000000063ffffffff168211155b6106e25760405162461bcd60e51b815260040161040e90611bdf565b60007f00000000000000000000000000000000000000000000000000000000000000007f00000000000000000000000000000000000000000000000000000000000000000363ffffffff16905060007f000000000000000000000000000000000000000000000000000000000000000063ffffffff16840390506107ab82610793837f000000000000000000000000000000000000000000000000000000000000000061118d90919063ffffffff16565b8161079a57fe5b670de0b6b3a76400009190046111b7565b925050505b919050565b6000600283815481106107c457fe5b906000526020600020906002020190508060010160089054906101000a90046001600160a01b03166001600160a01b0316336001600160a01b03161461081c5760405162461bcd60e51b815260040161040e90611c6a565b60408051808201909152601a81527f696e73756666696369656e74206c6f636b656420746f6b656e730000000000006020820152815461085d91849061120e565b80825560408051608081018252918252600183015463ffffffff8082166020850152640100000000820416918301919091526801000000000000000090046001600160a01b0316606082015260009081906108b890856112a6565b8454919350915061094e57600285815481106108d057fe5b60009182526020822060029091020190815560010180547fffffffff00000000000000000000000000000000000000000000000000000000169055604051339086907f848eb69947bbdedee397bd49ef03eeaee3e02f46c7b976f1ad40506ff1ee959b906109419086908690611caa565b60405180910390a3610993565b336001600160a01b0316857fa96e2506faef44a4c72b6ef256b777774d2e569a022e8dc4e8fad0f71e39484f848460405161098a929190611caa565b60405180910390a35b5050505050565b6003546001600160a01b031681565b60025490565b6109b93382611442565b50565b6109b981600283815481106109cd57fe5b9060005260206000209060020201600001546107b5565b600354600160a01b90046bffffffffffffffffffffffff1681565b7f000000000000000000000000000000000000000000000000000000000000000081565b610a2b6114b7565b6001600160a01b0316610a3c610cd9565b6001600160a01b031614610a97576040805162461bcd60e51b815260206004820181905260248201527f4f776e61626c653a2063616c6c6572206973206e6f7420746865206f776e6572604482015290519081900360640190fd5b600454600160601b900460ff1615610ac15760405162461bcd60e51b815260040161040e90611c33565b600480546cff0000000000000000000000001916600160601b1790556040517f1ab39014662150baa4fb9ef173df0198a743512e5a29a99d47216460de913e1e90600090a1565b7f000000000000000000000000000000000000000000000000000000000000000081565b610b346114b7565b6001600160a01b0316610b45610cd9565b6001600160a01b031614610ba0576040805162461bcd60e51b815260206004820181905260248201527f4f776e61626c653a2063616c6c6572206973206e6f7420746865206f776e6572604482015290519081900360640190fd5b6001546040516000916001600160a01b0316907f8be0079c531659141344cd1fd0a4f28419497f9722a3daafe3b4186f6b6457e0908390a3600180546001600160a01b0319169055565b6000602081905290815260409020546001600160a01b031681565b610c0d6114b7565b6001600160a01b0316610c1e610cd9565b6001600160a01b031614610c79576040805162461bcd60e51b815260206004820181905260248201527f4f776e61626c653a2063616c6c6572206973206e6f7420746865206f776e6572604482015290519081900360640190fd5b600380546001600160a01b0316600160a01b6bffffffffffffffffffffffff8416021790556040517fca2e9e3e71d8dcab383b61e219dc9f736ee812dbb08aff666933b85949553d3990610cce908390611d10565b60405180910390a150565b6001546001600160a01b031690565b7f000000000000000000000000000000000000000000000000000000000000000081565b7f000000000000000000000000000000000000000000000000000000000000000081565b6003546001600160a01b031680610d595760405162461bcd60e51b815260040161040e90611b03565b6004546bffffffffffffffffffffffff1680610d875760405162461bcd60e51b815260040161040e90611bfc565b600480546bffffffffffffffffffffffff19169055610dd06001600160a01b037f00000000000000000000000000000000000000000000000000000000000000001683836114bb565b7f7a845d9ff115a67119400d0d4fb3a54b18d744a32c3180ecb8e2f15d14af63ef81604051610dff9190611ca1565b60405180910390a15050565b7f000000000000000000000000000000000000000000000000000000000000000081565b6000806000610e3d84610668565b9050670de0b6b3a7640000610e52878361118d565b81610e5957fe5b0492508484014281111580610e775750600454600160601b900460ff165b15610e855760009250610f33565b4281036000670de0b6b3a7640000610ebd8a7f000000000000000000000000000000000000000000000000000000000000000061118d565b81610ec457fe5b04905060006ec097ce7bc90715b34b9f10000000008802610f19610f1287610f0c7f00000000000000000000000000000000000000000000000000000000000000008861118d565b9061118d565b8c9061118d565b81610f2057fe5b049050610f2d82826111b7565b95505050505b5050935093915050565b7f000000000000000000000000000000000000000000000000000000000000000081565b610f696114b7565b6001600160a01b0316610f7a610cd9565b6001600160a01b031614610fd5576040805162461bcd60e51b815260206004820181905260248201527f4f776e61626c653a2063616c6c6572206973206e6f7420746865206f776e6572604482015290519081900360640190fd5b600380546001600160a01b0319166001600160a01b0383161790556040517fbf9a9534339a9d6b81696e05dcfb614b7dc518a31d48be3cfb757988381fb32390610cce908390611acb565b6110286114b7565b6001600160a01b0316611039610cd9565b6001600160a01b031614611094576040805162461bcd60e51b815260206004820181905260248201527f4f776e61626c653a2063616c6c6572206973206e6f7420746865206f776e6572604482015290519081900360640190fd5b6001600160a01b0381166110d95760405162461bcd60e51b8152600401808060200182810382526026815260200180611d2a6026913960400191505060405180910390fd5b6001546040516001600160a01b038084169216907f8be0079c531659141344cd1fd0a4f28419497f9722a3daafe3b4186f6b6457e090600090a3600180546001600160a01b0319166001600160a01b0392909216919091179055565b6002818154811061114557600080fd5b60009182526020909120600290910201805460019091015490915063ffffffff808216916401000000008104909116906801000000000000000090046001600160a01b031684565b60008215806111a8575050818102818382816111a557fe5b04145b6111b157600080fd5b92915050565b808201828110156111b157600080fd5b60006111d283611617565b90506112096001600160a01b037f00000000000000000000000000000000000000000000000000000000000000001684838561172a565b505050565b818303818482111561129e5760405162461bcd60e51b81526004018080602001828103825283818151815260200191508051906020019080838360005b8381101561126357818101518382015260200161124b565b50505050905090810190601f1680156112905780820380516001836020036101000a031916815260200191505b509250505060405180910390fd5b509392505050565b60008060006112ca84866020015163ffffffff16876040015163ffffffff16610e2f565b90925090506112d98482611897565b604051632770a7eb60e21b81529093506001600160a01b037f00000000000000000000000000000000000000000000000000000000000000001690639dc29fac9061132a9033908690600401611adf565b600060405180830381600087803b15801561134457600080fd5b505af1158015611358573d6000803e3d6000fd5b50505050600081111561142f576113703330866118a7565b6113a46001600160a01b037f00000000000000000000000000000000000000000000000000000000000000001633856114bb565b6004546113c8906113c3906bffffffffffffffffffffffff16836111b7565b611924565b600480546bffffffffffffffffffffffff19166bffffffffffffffffffffffff929092169190911790556040517f91b044947b8ab661360de0aedacf8d16ad45adfb1f3bafb2ac8c4633e297b97190611422908390611ca1565b60405180910390a161143a565b61143a3333866118a7565b509250929050565b6001600160a01b038083166000908152602081905260408082205481516317066a5760e21b8152858516600482015291519316928392635c19a95c926024808201939182900301818387803b15801561149a57600080fd5b505af11580156114ae573d6000803e3d6000fd5b50505050505050565b3390565b604080516001600160a01b038481166024830152604480830185905283518084039091018152606490920183526020820180517bffffffffffffffffffffffffffffffffffffffffffffffffffffffff1663a9059cbb60e01b1781529251825160009485949389169392918291908083835b6020831061154c5780518252601f19909201916020918201910161152d565b6001836020036101000a0380198251168184511680821785525050505050509050019150506000604051808303816000865af19150503d80600081146115ae576040519150601f19603f3d011682016040523d82523d6000602084013e6115b3565b606091505b50915091508180156115e15750805115806115e157508080602001905160208110156115de57600080fd5b50515b610993576040805162461bcd60e51b815260206004820152600260248201526114d560f21b604482015290519081900360640190fd5b6001600160a01b0380821660009081526020819052604090205416806107b0576116607f000000000000000000000000000000000000000000000000000000000000000061194d565b6001600160a01b0383811660008181526020819052604080822080546001600160a01b031916948616948517905580516317066a5760e21b81526004810193909352519394509192635c19a95c9260248084019391929182900301818387803b1580156116cc57600080fd5b505af11580156116e0573d6000803e3d6000fd5b5050604080516001600160a01b038581168252915191861693507fec4b64bbbb122cb7400132394863e2f4c78d1f00ecf6024caf618cdee5a978ca925081900360200190a2919050565b604080516001600160a01b0385811660248301528481166044830152606480830185905283518084039091018152608490920183526020820180517bffffffffffffffffffffffffffffffffffffffffffffffffffffffff166323b872dd60e01b178152925182516000948594938a169392918291908083835b602083106117c35780518252601f1990920191602091820191016117a4565b6001836020036101000a0380198251168184511680821785525050505050509050019150506000604051808303816000865af19150503d8060008114611825576040519150601f19603f3d011682016040523d82523d6000602084013e61182a565b606091505b5091509150818015611858575080511580611858575080806020019051602081101561185557600080fd5b50515b61188f576040805162461bcd60e51b815260206004820152600360248201526229aa2360e91b604482015290519081900360640190fd5b505050505050565b808203828111156111b157600080fd5b6001600160a01b0380841660009081526020819052604080822054815163a9059cbb60e01b81528685166004820152602481018690529151931692839263a9059cbb926044808201939182900301818387803b15801561190657600080fd5b505af115801561191a573d6000803e3d6000fd5b5050505050505050565b6000600160601b82106119495760405162461bcd60e51b815260040161040e90611b3a565b5090565b60408051604880825260808201909252600091829190602082018180368337019050509050602081017f3d602d80600a3d3981f3363d3d373d3d3d363d7300000000000000000000000081528360601b60148201527f5af43d82803e903d91602b57fd5bf3000000000000000000000000000000000060288201526037816000f0949350505050565b6000602082840312156119e7578081fd5b81356001600160a01b03811681146119fd578182fd5b9392505050565b600060208284031215611a15578081fd5b5035919050565b60008060408385031215611a2e578081fd5b50508035926020909101359150565b600080600060608486031215611a51578081fd5b505081359360208301359350604090920135919050565b60008060408385031215611a7a578182fd5b82359150602083013563ffffffff81168114611a94578182fd5b809150509250929050565b600060208284031215611ab0578081fd5b81356bffffffffffffffffffffffff811681146119fd578182fd5b6001600160a01b0391909116815260200190565b6001600160a01b03929092168252602082015260400190565b901515815260200190565b6020808252600c908201527f6e6f20726563697069656e740000000000000000000000000000000000000000604082015260600190565b60208082526016908201527f616d6f756e742065786365656473203936206269747300000000000000000000604082015260600190565b60208082526010908201527f6465706f7369747320626c6f636b656400000000000000000000000000000000604082015260600190565b6020808252600b908201527f6d696e206465706f736974000000000000000000000000000000000000000000604082015260600190565b60208082526003908201526227a7a160e91b604082015260600190565b60208082526007908201527f6e6f206665657300000000000000000000000000000000000000000000000000604082015260600190565b60208082526011908201527f616c726561647920747269676765726564000000000000000000000000000000604082015260600190565b60208082526006908201527f216f776e65720000000000000000000000000000000000000000000000000000604082015260600190565b90815260200190565b918252602082015260400190565b928352602083019190915263ffffffff16604082015260600190565b93845263ffffffff9283166020850152911660408301526001600160a01b0316606082015260800190565b63ffffffff91909116815260200190565b6bffffffffffffffffffffffff9190911681526020019056fe4f776e61626c653a206e6577206f776e657220697320746865207a65726f2061646472657373a164736f6c6343000706000a60c060405234801561001057600080fd5b506040516103b03803806103b08339818101604052602081101561003357600080fd5b5051606081811b6001600160601b031916608052339081901b60a0526001600160a01b039091169061032561008b6000398060dc52806101cd52806102d252508061013a528061022b52806102f652506103256000f3fe608060405234801561001057600080fd5b506004361061004c5760003560e01c80635c19a95c14610051578063a9059cbb14610079578063b86d5298146100a5578063fc0c546a146100c9575b600080fd5b6100776004803603602081101561006757600080fd5b50356001600160a01b03166100d1565b005b6100776004803603604081101561008f57600080fd5b506001600160a01b0381351690602001356101c2565b6100ad6102d0565b604080516001600160a01b039092168252519081900360200190f35b6100ad6102f4565b336001600160a01b037f00000000000000000000000000000000000000000000000000000000000000001614610138576040805162461bcd60e51b8152602060048201526007602482015266216d6f64756c6560c81b604482015290519081900360640190fd5b7f00000000000000000000000000000000000000000000000000000000000000006001600160a01b0316635c19a95c826040518263ffffffff1660e01b815260040180826001600160a01b03168152602001915050600060405180830381600087803b1580156101a757600080fd5b505af11580156101bb573d6000803e3d6000fd5b5050505050565b336001600160a01b037f00000000000000000000000000000000000000000000000000000000000000001614610229576040805162461bcd60e51b8152602060048201526007602482015266216d6f64756c6560c81b604482015290519081900360640190fd5b7f00000000000000000000000000000000000000000000000000000000000000006001600160a01b031663a9059cbb83836040518363ffffffff1660e01b815260040180836001600160a01b0316815260200182815260200192505050602060405180830381600087803b1580156102a057600080fd5b505af11580156102b4573d6000803e3d6000fd5b505050506040513d60208110156102ca57600080fd5b50505050565b7f000000000000000000000000000000000000000000000000000000000000000081565b7f00000000000000000000000000000000000000000000000000000000000000008156fea164736f6c6343000706000a",
  "devdoc": {
    "kind": "dev",
    "methods": {
      "delegate(address)": {
        "details": "Delegate all voting shares the caller has in its sub-delegation module to `delegatee`. This will revert if the sub-delegation module does not exist."
      },
      "deposit(uint256,uint32)": {
        "details": "Lock `amount` of `depositToken` for `duration` seconds. Mints an amount of dividend tokens equal to the amount of tokens locked times 1 + (duration-minDuration) / (maxDuration - minDuration). Uses transferFrom - caller must have approved the contract to spend `amount` of `depositToken`. If the emergency unlock has been triggered, deposits will fail. `amount` must be greater than `minimumDeposit`."
      },
      "destroyLock(uint256)": {
        "details": "Withdraw the tokens locked in `lockId`. The caller will incur an early withdrawal fee if the lock duration has not elapsed. All of the dividend tokens received when the lock was created will be burned from the caller's account. This can only be executed by the lock owner."
      },
      "distributeFees()": {
        "details": "Transfers accumulated early withdrawal fees to the fee recipient."
      },
      "getDividendsMultiplier(uint256)": {
        "details": "Returns the dividends multiplier for `duration` expressed as a fraction of 1e18."
      },
      "getLocksLength()": {
        "details": "Returns the number of locks that have been created."
      },
      "getWithdrawalParameters(uint256,uint256,uint256)": {
        "details": "Returns the withdrawal fee and withdrawable shares for a withdrawal of a lock created at `lockedAt` with a duration of `lockDuration`, if it was withdrawan now. The early withdrawal fee is 0 if the full duration has passed or the emergency unlock has been triggered; otherwise, it is calculated as the fraction of the total duration that has not elapsed multiplied by the maximum base withdrawal fee and the dividends multiplier, plus the minimum withdrawal fee."
      },
      "owner()": {
        "details": "Returns the address of the current owner."
      },
      "renounceOwnership()": {
        "details": "Leaves the contract without owner. It will not be possible to call `onlyOwner` functions anymore. Can only be called by the current owner. NOTE: Renouncing ownership will leave the contract without an owner, thereby removing any functionality that is only available to the owner."
      },
      "setFeeRecipient(address)": {
        "details": "Set the account which receives fees taken for early withdrawals."
      },
      "setMinimumDeposit(uint96)": {
        "details": "Set the minimum deposit to `minimumDeposit_`. If it is 0, there will be no minimum."
      },
      "transferOwnership(address)": {
        "details": "Transfers ownership of the contract to a new account (`newOwner`). Can only be called by the current owner."
      },
      "triggerEmergencyUnlock()": {
        "details": "Trigger an emergency unlock which allows all locked tokens to be withdrawn with zero fees."
      }
    },
    "stateVariables": {
      "baseEarlyWithdrawalFee": {
        "details": "Base early withdrawal fee expressed as a fraction of 1e18. This is the fee paid if tokens are withdrawn immediately after being locked. It is multiplied by the dividend multiplier, and added to the minimum early withdrawal fee."
      },
      "dividendsToken": {
        "details": "Token used for dividend payments and given to users for deposits. Must be an ERC20DividendsOwned with this contract set as the owner."
      },
      "emergencyUnlockTriggered": {
        "details": "Allows all locked tokens to be withdrawn with no fees."
      },
      "feeRecipient": {
        "details": "Account which receives fees taken for early withdrawals."
      },
      "locks": {
        "details": "Array of token locks."
      },
      "maxDividendsBonusMultiplier": {
        "details": "Maximum dividends multiplier for a lock duration of `maxLockDuration`"
      },
      "maxLockDuration": {
        "details": "Maximum number of seconds shares can be locked for."
      },
      "minEarlyWithdrawalFee": {
        "details": "Minimum early withdrawal fee added to every dynamic withdrawal fee."
      },
      "minLockDuration": {
        "details": "Minimum number of seconds shares can be locked for."
      },
      "minimumDeposit": {
        "details": "Minimum amount of tokens that can be deposited. If zero, there is no minimum."
      },
      "pendingFees": {
        "details": "Accumulated early withdrawal fees."
      }
    },
    "version": 1
  },
  "userdoc": {
    "kind": "user",
    "methods": {
      "constructor": {
        "notice": "========== Constructor ==========  "
      }
    },
    "version": 1
  },
  "storageLayout": {
    "storage": [
      {
        "astId": 2546,
        "contract": "contracts/SharesTimeLock.sol:SharesTimeLock",
        "label": "subDelegationModuleForUser",
        "offset": 0,
        "slot": "0",
        "type": "t_mapping(t_address,t_contract(ISubDelegationModule)4948)"
      },
      {
        "astId": 7,
        "contract": "contracts/SharesTimeLock.sol:SharesTimeLock",
        "label": "_owner",
        "offset": 0,
        "slot": "1",
        "type": "t_address"
      },
      {
        "astId": 1563,
        "contract": "contracts/SharesTimeLock.sol:SharesTimeLock",
        "label": "locks",
        "offset": 0,
        "slot": "2",
        "type": "t_array(t_struct(Lock)4802_storage)dyn_storage"
      },
      {
        "astId": 1567,
        "contract": "contracts/SharesTimeLock.sol:SharesTimeLock",
        "label": "feeRecipient",
        "offset": 0,
        "slot": "3",
        "type": "t_address"
      },
      {
        "astId": 1571,
        "contract": "contracts/SharesTimeLock.sol:SharesTimeLock",
        "label": "minimumDeposit",
        "offset": 20,
        "slot": "3",
        "type": "t_uint96"
      },
      {
        "astId": 1575,
        "contract": "contracts/SharesTimeLock.sol:SharesTimeLock",
        "label": "pendingFees",
        "offset": 0,
        "slot": "4",
        "type": "t_uint96"
      },
      {
        "astId": 1579,
        "contract": "contracts/SharesTimeLock.sol:SharesTimeLock",
        "label": "emergencyUnlockTriggered",
        "offset": 12,
        "slot": "4",
        "type": "t_bool"
      }
    ],
    "types": {
      "t_address": {
        "encoding": "inplace",
        "label": "address",
        "numberOfBytes": "20"
      },
      "t_array(t_struct(Lock)4802_storage)dyn_storage": {
        "base": "t_struct(Lock)4802_storage",
        "encoding": "dynamic_array",
        "label": "struct ISharesTimeLock.Lock[]",
        "numberOfBytes": "32"
      },
      "t_bool": {
        "encoding": "inplace",
        "label": "bool",
        "numberOfBytes": "1"
      },
      "t_contract(ISubDelegationModule)4948": {
        "encoding": "inplace",
        "label": "contract ISubDelegationModule",
        "numberOfBytes": "20"
      },
      "t_mapping(t_address,t_contract(ISubDelegationModule)4948)": {
        "encoding": "mapping",
        "key": "t_address",
        "label": "mapping(address => contract ISubDelegationModule)",
        "numberOfBytes": "32",
        "value": "t_contract(ISubDelegationModule)4948"
      },
      "t_struct(Lock)4802_storage": {
        "encoding": "inplace",
        "label": "struct ISharesTimeLock.Lock",
        "members": [
          {
            "astId": 4795,
            "contract": "contracts/SharesTimeLock.sol:SharesTimeLock",
            "label": "amount",
            "offset": 0,
            "slot": "0",
            "type": "t_uint256"
          },
          {
            "astId": 4797,
            "contract": "contracts/SharesTimeLock.sol:SharesTimeLock",
            "label": "lockedAt",
            "offset": 0,
            "slot": "1",
            "type": "t_uint32"
          },
          {
            "astId": 4799,
            "contract": "contracts/SharesTimeLock.sol:SharesTimeLock",
            "label": "lockDuration",
            "offset": 4,
            "slot": "1",
            "type": "t_uint32"
          },
          {
            "astId": 4801,
            "contract": "contracts/SharesTimeLock.sol:SharesTimeLock",
            "label": "owner",
            "offset": 8,
            "slot": "1",
            "type": "t_address"
          }
        ],
        "numberOfBytes": "64"
      },
      "t_uint256": {
        "encoding": "inplace",
        "label": "uint256",
        "numberOfBytes": "32"
      },
      "t_uint32": {
        "encoding": "inplace",
        "label": "uint32",
        "numberOfBytes": "4"
      },
      "t_uint96": {
        "encoding": "inplace",
        "label": "uint96",
        "numberOfBytes": "12"
      }
    }
  }
}